{
  "_format": "hh-sol-artifact-1",
  "contractName": "Errand",
  "sourceName": "contracts/Errand.sol",
  "abi": [
    {
      "inputs": [
        {
          "internalType": "uint256",
          "name": "_bidId",
          "type": "uint256"
        }
      ],
      "name": "acceptRequest",
      "outputs": [],
      "stateMutability": "payable",
      "type": "function"
    },
    {
      "inputs": [
        {
          "internalType": "uint256",
          "name": "_errandId",
          "type": "uint256"
        }
      ],
      "name": "acceptTask",
      "outputs": [],
      "stateMutability": "nonpayable",
      "type": "function"
    },
    {
      "inputs": [
        {
          "internalType": "uint256",
          "name": "",
          "type": "uint256"
        }
      ],
      "name": "bids",
      "outputs": [
        {
          "internalType": "uint256",
          "name": "id",
          "type": "uint256"
        },
        {
          "internalType": "address payable",
          "name": "bidder",
          "type": "address"
        },
        {
          "internalType": "uint256",
          "name": "amount",
          "type": "uint256"
        },
        {
          "internalType": "bool",
          "name": "accepted",
          "type": "bool"
        }
      ],
      "stateMutability": "view",
      "type": "function"
    },
    {
      "inputs": [
        {
          "internalType": "uint256",
          "name": "_errandId",
          "type": "uint256"
        }
      ],
      "name": "completeTask",
      "outputs": [],
      "stateMutability": "nonpayable",
      "type": "function"
    },
    {
      "inputs": [
        {
          "internalType": "string",
          "name": "_image",
          "type": "string"
        },
        {
          "internalType": "string",
          "name": "_title",
          "type": "string"
        },
        {
          "internalType": "string",
          "name": "_description",
          "type": "string"
        },
        {
          "internalType": "string",
          "name": "_location",
          "type": "string"
        },
        {
          "internalType": "string",
          "name": "_isOnsite",
          "type": "string"
        },
        {
          "internalType": "string",
          "name": "_category",
          "type": "string"
        },
        {
          "internalType": "uint256",
          "name": "_errandCost",
          "type": "uint256"
        }
      ],
      "name": "createErrand",
      "outputs": [],
      "stateMutability": "nonpayable",
      "type": "function"
    },
    {
      "inputs": [
        {
          "internalType": "uint256",
          "name": "",
          "type": "uint256"
        }
      ],
      "name": "errandAmount",
      "outputs": [
        {
          "internalType": "uint256",
          "name": "",
          "type": "uint256"
        }
      ],
      "stateMutability": "view",
      "type": "function"
    },
    {
      "inputs": [
        {
          "internalType": "address",
          "name": "",
          "type": "address"
        },
        {
          "internalType": "uint256",
          "name": "",
          "type": "uint256"
        },
        {
          "internalType": "uint256",
          "name": "",
          "type": "uint256"
        }
      ],
      "name": "errandBids",
      "outputs": [
        {
          "internalType": "uint256",
          "name": "id",
          "type": "uint256"
        },
        {
          "internalType": "address payable",
          "name": "bidder",
          "type": "address"
        },
        {
          "internalType": "uint256",
          "name": "amount",
          "type": "uint256"
        },
        {
          "internalType": "bool",
          "name": "accepted",
          "type": "bool"
        }
      ],
      "stateMutability": "view",
      "type": "function"
    },
    {
      "inputs": [
        {
          "internalType": "uint256",
          "name": "",
          "type": "uint256"
        }
      ],
      "name": "errandToOwner",
      "outputs": [
        {
          "internalType": "address",
          "name": "",
          "type": "address"
        }
      ],
      "stateMutability": "view",
      "type": "function"
    },
    {
      "inputs": [
        {
          "internalType": "uint256",
          "name": "",
          "type": "uint256"
        }
      ],
      "name": "errands",
      "outputs": [
        {
          "internalType": "string",
          "name": "image",
          "type": "string"
        },
        {
          "internalType": "string",
          "name": "title",
          "type": "string"
        },
        {
          "internalType": "string",
          "name": "description",
          "type": "string"
        },
        {
          "internalType": "string",
          "name": "location",
          "type": "string"
        },
        {
          "internalType": "string",
          "name": "isOnSite",
          "type": "string"
        },
        {
          "internalType": "string",
          "name": "category",
          "type": "string"
        },
        {
          "internalType": "uint256",
          "name": "errandDate",
          "type": "uint256"
        },
        {
          "internalType": "uint256",
          "name": "errandCost",
          "type": "uint256"
        },
        {
          "internalType": "enum Errand.ErrandStatus",
          "name": "status",
          "type": "uint8"
        },
        {
          "internalType": "address",
          "name": "owner",
          "type": "address"
        }
      ],
      "stateMutability": "view",
      "type": "function"
    },
    {
      "inputs": [],
      "name": "getAllBids",
      "outputs": [
        {
          "components": [
            {
              "internalType": "uint256",
              "name": "id",
              "type": "uint256"
            },
            {
              "internalType": "address payable",
              "name": "bidder",
              "type": "address"
            },
            {
              "internalType": "uint256",
              "name": "amount",
              "type": "uint256"
            },
            {
              "internalType": "bool",
              "name": "accepted",
              "type": "bool"
            }
          ],
          "internalType": "struct Errand.Bid[]",
          "name": "",
          "type": "tuple[]"
        }
      ],
      "stateMutability": "view",
      "type": "function"
    },
    {
      "inputs": [],
      "name": "getAllErrand",
      "outputs": [
        {
          "components": [
            {
              "internalType": "string",
              "name": "image",
              "type": "string"
            },
            {
              "internalType": "string",
              "name": "title",
              "type": "string"
            },
            {
              "internalType": "string",
              "name": "description",
              "type": "string"
            },
            {
              "internalType": "string",
              "name": "location",
              "type": "string"
            },
            {
              "internalType": "string",
              "name": "isOnSite",
              "type": "string"
            },
            {
              "internalType": "string",
              "name": "category",
              "type": "string"
            },
            {
              "internalType": "uint256",
              "name": "errandDate",
              "type": "uint256"
            },
            {
              "internalType": "uint256",
              "name": "errandCost",
              "type": "uint256"
            },
            {
              "internalType": "enum Errand.ErrandStatus",
              "name": "status",
              "type": "uint8"
            },
            {
              "internalType": "address",
              "name": "owner",
              "type": "address"
            },
            {
              "internalType": "uint256[]",
              "name": "bidAmounts",
              "type": "uint256[]"
            },
            {
              "internalType": "address[]",
              "name": "bidders",
              "type": "address[]"
            },
            {
              "components": [
                {
                  "internalType": "uint256",
                  "name": "id",
                  "type": "uint256"
                },
                {
                  "internalType": "address payable",
                  "name": "bidder",
                  "type": "address"
                },
                {
                  "internalType": "uint256",
                  "name": "amount",
                  "type": "uint256"
                },
                {
                  "internalType": "bool",
                  "name": "accepted",
                  "type": "bool"
                }
              ],
              "internalType": "struct Errand.Bid[]",
              "name": "bids",
              "type": "tuple[]"
            }
          ],
          "internalType": "struct Errand.ErrandStruct[]",
          "name": "",
          "type": "tuple[]"
        }
      ],
      "stateMutability": "view",
      "type": "function"
    },
    {
      "inputs": [],
      "name": "inspector",
      "outputs": [
        {
          "internalType": "address",
          "name": "",
          "type": "address"
        }
      ],
      "stateMutability": "view",
      "type": "function"
    },
    {
      "inputs": [
        {
          "internalType": "address",
          "name": "",
          "type": "address"
        }
      ],
      "name": "ownerErrand",
      "outputs": [
        {
          "internalType": "string",
          "name": "image",
          "type": "string"
        },
        {
          "internalType": "string",
          "name": "title",
          "type": "string"
        },
        {
          "internalType": "string",
          "name": "description",
          "type": "string"
        },
        {
          "internalType": "string",
          "name": "location",
          "type": "string"
        },
        {
          "internalType": "string",
          "name": "isOnSite",
          "type": "string"
        },
        {
          "internalType": "string",
          "name": "category",
          "type": "string"
        },
        {
          "internalType": "uint256",
          "name": "errandDate",
          "type": "uint256"
        },
        {
          "internalType": "uint256",
          "name": "errandCost",
          "type": "uint256"
        },
        {
          "internalType": "enum Errand.ErrandStatus",
          "name": "status",
          "type": "uint8"
        },
        {
          "internalType": "address",
          "name": "owner",
          "type": "address"
        }
      ],
      "stateMutability": "view",
      "type": "function"
    },
    {
      "inputs": [
        {
          "internalType": "address",
          "name": "",
          "type": "address"
        }
      ],
      "name": "ownerErrandCount",
      "outputs": [
        {
          "internalType": "uint256",
          "name": "",
          "type": "uint256"
        }
      ],
      "stateMutability": "view",
      "type": "function"
    },
    {
      "inputs": [
        {
          "internalType": "uint256",
          "name": "_errandId",
          "type": "uint256"
        },
        {
          "internalType": "uint256",
          "name": "_bidAmount",
          "type": "uint256"
        }
      ],
      "name": "sendRequest",
      "outputs": [],
      "stateMutability": "nonpayable",
      "type": "function"
    },
    {
      "inputs": [
        {
          "internalType": "uint256",
          "name": "",
          "type": "uint256"
        }
      ],
      "name": "servicesById",
      "outputs": [
        {
          "internalType": "string",
          "name": "image",
          "type": "string"
        },
        {
          "internalType": "string",
          "name": "title",
          "type": "string"
        },
        {
          "internalType": "string",
          "name": "description",
          "type": "string"
        },
        {
          "internalType": "string",
          "name": "location",
          "type": "string"
        },
        {
          "internalType": "string",
          "name": "isOnSite",
          "type": "string"
        },
        {
          "internalType": "string",
          "name": "category",
          "type": "string"
        },
        {
          "internalType": "uint256",
          "name": "errandDate",
          "type": "uint256"
        },
        {
          "internalType": "uint256",
          "name": "errandCost",
          "type": "uint256"
        },
        {
          "internalType": "enum Errand.ErrandStatus",
          "name": "status",
          "type": "uint8"
        },
        {
          "internalType": "address",
          "name": "owner",
          "type": "address"
        }
      ],
      "stateMutability": "view",
      "type": "function"
    }
  ],
  "bytecode": "0x608060405234801561001057600080fd5b5061226b806100206000396000f3fe6080604052600436106100f35760003560e01c80638d0f6da31161008a578063b3db5c9411610059578063b3db5c9414610301578063e1e2955814610321578063e523e67f14610341578063ed2cee9e1461036357600080fd5b80638d0f6da31461025157806399d2a29c146102735780639d14989914610293578063ad4d9384146102b357600080fd5b80636a2d6feb116100c65780636a2d6feb146101b6578063707f37fe146101f157806375658bfc146102115780638bbb23db1461023157600080fd5b80631bf6912d146100f85780632c37ab951461011a5780634423c5f1146101595780634ba1f098146101a3575b600080fd5b34801561010457600080fd5b50610118610113366004611b73565b610383565b005b34801561012657600080fd5b5061013a610135366004611ba8565b610612565b6040516101509a99989796959493929190611c4f565b60405180910390f35b34801561016557600080fd5b50610179610174366004611b73565b61099d565b604080519485526001600160a01b0390931660208501529183015215156060820152608001610150565b6101186101b1366004611b73565b6109e3565b3480156101c257600080fd5b506101e36101d1366004611ba8565b600a6020526000908152604090205481565b604051908152602001610150565b3480156101fd57600080fd5b5061013a61020c366004611b73565b610b9c565b34801561021d57600080fd5b5061013a61022c366004611b73565b610bcf565b34801561023d57600080fd5b5061011861024c366004611da8565b610bea565b34801561025d57600080fd5b50610266610ee8565b6040516101509190611f0e565b34801561027f57600080fd5b5061017961028e366004611f21565b610f77565b34801561029f57600080fd5b506101e36102ae366004611b73565b610fd8565b3480156102bf57600080fd5b506102e96102ce366004611b73565b6009602052600090815260409020546001600160a01b031681565b6040516001600160a01b039091168152602001610150565b34801561030d57600080fd5b5061011861031c366004611f54565b610ff9565b34801561032d57600080fd5b5061011861033c366004611b73565b6112a9565b34801561034d57600080fd5b506103566113e0565b6040516101509190611fdf565b34801561036f57600080fd5b506001546102e9906001600160a01b031681565b60035481106103ad5760405162461bcd60e51b81526004016103a490612165565b60405180910390fd5b6000600382815481106103c2576103c261219c565b600091825260209091206008600c909202019081015490915061010090046001600160a01b031633146104495760405162461bcd60e51b815260206004820152602960248201527f4f6e6c792074686520657272616e64206f776e65722063616e2061636365707460448201526820746865207461736b60b81b60648201526084016103a4565b6000600882015460ff16600581111561046457610464611c17565b146104b15760405162461bcd60e51b815260206004820152601c60248201527f457272616e64206e6f7420696e2063726561746564207374617475730000000060448201526064016103a4565b60088101805460ff19166002179055600080805b600b84015481101561057e5783600b0181815481106104e6576104e661219c565b600091825260209091206003600490920201015460ff161561056c5783600b0181815481106105175761051761219c565b906000526020600020906004020160010160009054906101000a90046001600160a01b0316925083600b0181815481106105535761055361219c565b906000526020600020906004020160020154915061057e565b80610576816121c8565b9150506104c5565b506001600160a01b0382166105d55760405162461bcd60e51b815260206004820152601860248201527f4e6f2061636365707465642062696464657220666f756e64000000000000000060448201526064016103a4565b6040516001600160a01b0383169082156108fc029083906000818181858888f1935050505015801561060b573d6000803e3d6000fd5b5050505050565b600b6020526000908152604090208054819061062d906121e3565b80601f0160208091040260200160405190810160405280929190818152602001828054610659906121e3565b80156106a65780601f1061067b576101008083540402835291602001916106a6565b820191906000526020600020905b81548152906001019060200180831161068957829003601f168201915b5050505050908060010180546106bb906121e3565b80601f01602080910402602001604051908101604052809291908181526020018280546106e7906121e3565b80156107345780601f1061070957610100808354040283529160200191610734565b820191906000526020600020905b81548152906001019060200180831161071757829003601f168201915b505050505090806002018054610749906121e3565b80601f0160208091040260200160405190810160405280929190818152602001828054610775906121e3565b80156107c25780601f10610797576101008083540402835291602001916107c2565b820191906000526020600020905b8154815290600101906020018083116107a557829003601f168201915b5050505050908060030180546107d7906121e3565b80601f0160208091040260200160405190810160405280929190818152602001828054610803906121e3565b80156108505780601f1061082557610100808354040283529160200191610850565b820191906000526020600020905b81548152906001019060200180831161083357829003601f168201915b505050505090806004018054610865906121e3565b80601f0160208091040260200160405190810160405280929190818152602001828054610891906121e3565b80156108de5780601f106108b3576101008083540402835291602001916108de565b820191906000526020600020905b8154815290600101906020018083116108c157829003601f168201915b5050505050908060050180546108f3906121e3565b80601f016020809104026020016040519081016040528092919081815260200182805461091f906121e3565b801561096c5780601f106109415761010080835404028352916020019161096c565b820191906000526020600020905b81548152906001019060200180831161094f57829003601f168201915b50505050600683015460078401546008909401549293909290915060ff81169061010090046001600160a01b03168a565b600481815481106109ad57600080fd5b600091825260209091206004909102018054600182015460028301546003909301549193506001600160a01b0316919060ff1684565b6004548110610a045760405162461bcd60e51b81526004016103a490612165565b336000818152600b602052604090206008015461010090046001600160a01b031614610a4c5760405162461bcd60e51b815260206004820152600060248201526044016103a4565b600060048281548110610a6157610a6161219c565b9060005260206000209060040201905060048281548110610a8457610a8461219c565b600091825260209091206003600490920201015460ff16151560011415610ac75760405162461bcd60e51b815260206004820152600060248201526044016103a4565b600281015460405160009130918381818185875af1925050503d8060008114610b0c576040519150601f19603f3d011682016040523d82523d6000602084013e610b11565b606091505b5050905080610b625760405162461bcd60e51b815260206004820152601760248201527f5061796d656e74207472616e73666572206661696c656400000000000000000060448201526064016103a4565b50600381018054600160ff199182168117909255918101546001600160a01b03166000908152600860205260409020805490921617905550565b60038181548110610bac57600080fd5b90600052602060002090600c020160009150905080600001805461062d906121e3565b600c6020526000908152604090208054819061062d906121e3565b336000908152600b6020908152604090912088519091610c0e9183918b0190611947565b508651610c2490600183019060208a0190611947565b508551610c3a9060028301906020890190611947565b508451610c509060038301906020880190611947565b508351610c669060048301906020870190611947565b508251610c7c9060058301906020860190611947565b50426006820155600781018290556008810180546001600160a81b031916336101000260ff19161790556002805460018181019092557f405787fa12a823e0f2b7631cc41b3ba8828b3321ca811111fa75cd3aa3bb5ace0183905560038054918201815560005281548291600c027fc2575a0e9e593c00f959f8c92f12db2869c3395a3b0502d05e2516446f71f85b019081908390610d1a906121e3565b610d259291906119cb565b506001820181600101908054610d3a906121e3565b610d459291906119cb565b506002820181600201908054610d5a906121e3565b610d659291906119cb565b506003820181600301908054610d7a906121e3565b610d859291906119cb565b506004820181600401908054610d9a906121e3565b610da59291906119cb565b506005820181600501908054610dba906121e3565b610dc59291906119cb565b506006828101549082015560078083015490820155600880830154908201805460ff9092169160ff19166001836005811115610e0357610e03611c17565b02179055506008828101549082018054610100600160a81b031916610100928390046001600160a01b031690920291909117905560098083018054610e4b9284019190611a46565b50600a8281018054610e609284019190611a46565b50600b8281018054610e759284019190611a85565b50505033600960006001600380549050610e8f919061221e565b81526020808201929092526040908101600090812080546001600160a01b0319166001600160a01b039590951694909417909355338352600a9091528120805491610ed9836121c8565b91905055505050505050505050565b60606004805480602002602001604051908101604052809291908181526020016000905b82821015610f6e5760008481526020908190206040805160808101825260048602909201805483526001808201546001600160a01b0316848601526002820154928401929092526003015460ff16151560608301529083529092019101610f0c565b50505050905090565b60076020528260005260406000206020528160005260406000208181548110610f9f57600080fd5b600091825260209091206004909102018054600182015460028301546003909301549195506001600160a01b0316935090915060ff1684565b60028181548110610fe857600080fd5b600091825260209091200154905081565b600354821061101a5760405162461bcd60e51b81526004016103a490612165565b600081116110765760405162461bcd60e51b8152602060048201526024808201527f42696420616d6f756e74206d7573742062652067726561746572207468616e206044820152637a65726f60e01b60648201526084016103a4565b6000828152600c6020526040812090600882015460ff16600581111561109e5761109e611c17565b146110eb5760405162461bcd60e51b815260206004820152601a60248201527f43616e6e6f742062696420666f72207468697320657272616e6400000000000060448201526064016103a4565b600a8101805460018082018355600092835260208084209092018054336001600160a01b03199182168117909255600986018054808501825590865284862001879055818552600d909352604084206002810187905560038101805460ff1916905591820180549093161790915560068054808355919261116b836121c8565b9091555050600b90910180546001818101835560009283526020832084546004938402909101908155818501805482840180546001600160a01b03199081166001600160a01b039384161790915560028089018054918601919091556003808a01805491909601805460ff928316151560ff199182161790915588549788018955988890529854959096027f8a35acfbc15ff81a39ae7d344fd709f28e8600b4aa8c65c6b64bfe7fe36bd19b81019590955591547f8a35acfbc15ff81a39ae7d344fd709f28e8600b4aa8c65c6b64bfe7fe36bd19c85018054909316911617905591547f8a35acfbc15ff81a39ae7d344fd709f28e8600b4aa8c65c6b64bfe7fe36bd19d82015590547f8a35acfbc15ff81a39ae7d344fd709f28e8600b4aa8c65c6b64bfe7fe36bd19e909101805491909316151591161790555050565b60035481106112ca5760405162461bcd60e51b81526004016103a490612165565b6000600382815481106112df576112df61219c565b600091825260208083203384526008909152604090922054600c909102909101915060ff166113675760405162461bcd60e51b815260206004820152602e60248201527f4f6e6c7920746865206163636570746564206269646465722063616e20636f6d60448201526d706c65746520746865207461736b60901b60648201526084016103a4565b6002600882015460ff16600581111561138257611382611c17565b146113cf5760405162461bcd60e51b815260206004820152601d60248201527f457272616e64206e6f7420696e2061636365707465642073746174757300000060448201526064016103a4565b600801805460ff1916600517905550565b60606003805480602002602001604051908101604052809291908181526020016000905b82821015610f6e57838290600052602060002090600c0201604051806101a0016040529081600082018054611438906121e3565b80601f0160208091040260200160405190810160405280929190818152602001828054611464906121e3565b80156114b15780601f10611486576101008083540402835291602001916114b1565b820191906000526020600020905b81548152906001019060200180831161149457829003601f168201915b505050505081526020016001820180546114ca906121e3565b80601f01602080910402602001604051908101604052809291908181526020018280546114f6906121e3565b80156115435780601f1061151857610100808354040283529160200191611543565b820191906000526020600020905b81548152906001019060200180831161152657829003601f168201915b5050505050815260200160028201805461155c906121e3565b80601f0160208091040260200160405190810160405280929190818152602001828054611588906121e3565b80156115d55780601f106115aa576101008083540402835291602001916115d5565b820191906000526020600020905b8154815290600101906020018083116115b857829003601f168201915b505050505081526020016003820180546115ee906121e3565b80601f016020809104026020016040519081016040528092919081815260200182805461161a906121e3565b80156116675780601f1061163c57610100808354040283529160200191611667565b820191906000526020600020905b81548152906001019060200180831161164a57829003601f168201915b50505050508152602001600482018054611680906121e3565b80601f01602080910402602001604051908101604052809291908181526020018280546116ac906121e3565b80156116f95780601f106116ce576101008083540402835291602001916116f9565b820191906000526020600020905b8154815290600101906020018083116116dc57829003601f168201915b50505050508152602001600582018054611712906121e3565b80601f016020809104026020016040519081016040528092919081815260200182805461173e906121e3565b801561178b5780601f106117605761010080835404028352916020019161178b565b820191906000526020600020905b81548152906001019060200180831161176e57829003601f168201915b50505091835250506006820154602082015260078201546040820152600882015460609091019060ff1660058111156117c6576117c6611c17565b60058111156117d7576117d7611c17565b8152600882015461010090046001600160a01b0316602080830191909152600983018054604080518285028101850182528281529401939283018282801561183e57602002820191906000526020600020905b81548152602001906001019080831161182a575b50505050508152602001600a82018054806020026020016040519081016040528092919081815260200182805480156118a057602002820191906000526020600020905b81546001600160a01b03168152600190910190602001808311611882575b50505050508152602001600b8201805480602002602001604051908101604052809291908181526020016000905b828210156119305760008481526020908190206040805160808101825260048602909201805483526001808201546001600160a01b0316848601526002820154928401929092526003015460ff161515606083015290835290920191016118ce565b505050508152505081526020019060010190611404565b828054611953906121e3565b90600052602060002090601f01602090048101928261197557600085556119bb565b82601f1061198e57805160ff19168380011785556119bb565b828001600101855582156119bb579182015b828111156119bb5782518255916020019190600101906119a0565b506119c7929150611b25565b5090565b8280546119d7906121e3565b90600052602060002090601f0160209004810192826119f957600085556119bb565b82601f10611a0a57805485556119bb565b828001600101855582156119bb57600052602060002091601f016020900482015b828111156119bb578254825591600101919060010190611a2b565b8280548282559060005260206000209081019282156119bb576000526020600020918201828111156119bb578254825591600101919060010190611a2b565b828054828255906000526020600020906004028101928215611b195760005260206000209160040282015b82811115611b19578254825560018084015490830180546001600160a01b0319166001600160a01b0390921691909117905560028084015490830155600380840154908301805460ff909216151560ff1990921691909117905560049283019290910190611ab0565b506119c7929150611b3a565b5b808211156119c75760008155600101611b26565b5b808211156119c75760008082556001820180546001600160a01b0319169055600282015560038101805460ff19169055600401611b3b565b600060208284031215611b8557600080fd5b5035919050565b80356001600160a01b0381168114611ba357600080fd5b919050565b600060208284031215611bba57600080fd5b611bc382611b8c565b9392505050565b6000815180845260005b81811015611bf057602081850181015186830182015201611bd4565b81811115611c02576000602083870101525b50601f01601f19169290920160200192915050565b634e487b7160e01b600052602160045260246000fd5b60068110611c4b57634e487b7160e01b600052602160045260246000fd5b9052565b6000610140808352611c638184018e611bca565b90508281036020840152611c77818d611bca565b90508281036040840152611c8b818c611bca565b90508281036060840152611c9f818b611bca565b90508281036080840152611cb3818a611bca565b905082810360a0840152611cc78189611bca565b9150508560c08301528460e0830152611ce4610100830185611c2d565b6001600160a01b039290921661012091909101529998505050505050505050565b634e487b7160e01b600052604160045260246000fd5b600082601f830112611d2c57600080fd5b813567ffffffffffffffff80821115611d4757611d47611d05565b604051601f8301601f19908116603f01168101908282118183101715611d6f57611d6f611d05565b81604052838152866020858801011115611d8857600080fd5b836020870160208301376000602085830101528094505050505092915050565b600080600080600080600060e0888a031215611dc357600080fd5b873567ffffffffffffffff80821115611ddb57600080fd5b611de78b838c01611d1b565b985060208a0135915080821115611dfd57600080fd5b611e098b838c01611d1b565b975060408a0135915080821115611e1f57600080fd5b611e2b8b838c01611d1b565b965060608a0135915080821115611e4157600080fd5b611e4d8b838c01611d1b565b955060808a0135915080821115611e6357600080fd5b611e6f8b838c01611d1b565b945060a08a0135915080821115611e8557600080fd5b50611e928a828b01611d1b565b92505060c0880135905092959891949750929550565b600081518084526020808501945080840160005b83811015611f0357815180518852838101516001600160a01b0316848901526040808201519089015260609081015115159088015260809096019590820190600101611ebc565b509495945050505050565b602081526000611bc36020830184611ea8565b600080600060608486031215611f3657600080fd5b611f3f84611b8c565b95602085013595506040909401359392505050565b60008060408385031215611f6757600080fd5b50508035926020909101359150565b600081518084526020808501945080840160005b83811015611f0357815187529582019590820190600101611f8a565b600081518084526020808501945080840160005b83811015611f035781516001600160a01b031687529582019590820190600101611fba565b60006020808301818452808551808352604092508286019150828160051b87010184880160005b8381101561215757603f1989840301855281516101a0815181865261202d82870182611bca565b915050888201518582038a8701526120458282611bca565b915050878201518582038987015261205d8282611bca565b915050606080830151868303828801526120778382611bca565b92505050608080830151868303828801526120928382611bca565b9250505060a080830151868303828801526120ad8382611bca565b9250505060c080830151818701525060e0808301518187015250610100808301516120da82880182611c2d565b5050610120828101516001600160a01b03169086015261014080830151868303828801526121088382611f76565b9250505061016080830151868303828801526121248382611fa6565b9250505061018080830151925085820381870152506121438183611ea8565b968901969450505090860190600101612006565b509098975050505050505050565b60208082526018908201527f457272616e6420494420646f6573206e6f742065786973740000000000000000604082015260600190565b634e487b7160e01b600052603260045260246000fd5b634e487b7160e01b600052601160045260246000fd5b60006000198214156121dc576121dc6121b2565b5060010190565b600181811c908216806121f757607f821691505b6020821081141561221857634e487b7160e01b600052602260045260246000fd5b50919050565b600082821015612230576122306121b2565b50039056fea2646970667358221220270549d3dc3e11a81a24f3877cd3be51c070bb34b0fd5377a988455fb233b69164736f6c63430008090033",
  "linkReferences": {},
  "deployedLinkReferences": {}
}